:0300000002058076
:0C058000787FE4F6D8FD7581130205C7F2
:0F068B00010A00020C0009020E0009021000090A
:1003BA00E4F51275B0FE85B0087509F0E508520932
:1003CA00E50964F0605C12066785B008E50854F038
:1003DA00F50964F0604CE5092450601124E06012CC
:1003EA0024F0601324707012751210800D75120FAC
:1003FA00800875120E800375120DE50964F06022FB
:10040A00E50964F0600E12066785B008E50854F045
:10041A00F50980EC12066785B008E50854F0F5097D
:10042A0080D875B0FD85B0087509F0E5085209E570
:10043A000964F0605C12066785B008E50854F0F5B7
:10044A000964F0604CE5092450601124E06012242C
:10045A00F060132470701275120C800D75120B80E7
:10046A000875120A8003751209E50964F06022E52D
:10047A000964F0600E12066785B008E50854F0F5C5
:10048A000980EC12066785B008E50854F0F5098082
:10049A00D875B0FB85B0087509F0E5085209E50979
:1004AA0064F0605C12066785B008E50854F0F50947
:1004BA0064F0604CE5092450601124E0601224F0D5
:1004CA00601324707012751208800D751207800867
:1004DA007512068003751205E50964F06022E509C4
:1004EA0064F0600E12066785B008E50854F0F50955
:1004FA0080EC12066785B008E50854F0F50980D843
:10050A0075B0F785B0087509F0E5085209E5096480
:10051A00F0606012066785B008E50854F0F50964D2
:10052A00F06050E5092450601124E0601224F06064
:10053A001324707012751204800D751203800875E9
:10054A0012028003751201E50964F06026E5096468
:10055A00F060127F467E0012066B85B008E50854EB
:10056A00F0F50980E812066785B008E50854F0F549
:06057A000980D4AF12223B
:040667007F327E0060
:10066B00E4FDFCC3ED9FEC9E5015E4FBFA0BBB00C5
:0F067B00010ABA03F8BBA2F50DBD00010C80E423
:01068A00224D
:04069B007F007EF26C
:0A069F00EF1F70011E144E70F722C9
:10000E00758901758CFE758AECD2A9D2AFD280D2D9
:10001E0081D282D28C1203BA8F0B7E00EF640170F4
:10002E0016E50D640A450C7006F50CF50D800805F5
:10003E000DE50D7002050CEF64024E7016E50F64AF
:10004E000A450E7006F50EF50F8008050FE50F70C8
:10005E0002050EEF64034E7016E511640A4510702A
:10006E0006F510F51180080511E51170020510EF67
:10007E0064044E700FF50C750D05F50E750F05F534
:10008E0010751105EF64054E700FF50C750D02F528
:10009E000E750F02F510751108EF64064E700FF510
:1000AE000C750D02F50E750F02F51075110AEF6441
:1000BE00074E700FF50C750D01F50E750F08F51046
:1000CE0075110AEF64084E700FF50C750D0AF50EDA
:1000DE00750F0AF51075110AEF64094E700FF50CC5
:1000EE00750D04F50E750F08F510751107EF640AFE
:1000FE004E700FF50C750D02F50E750F08F5107597
:10010E001102EF640B4E700FF50C750D05F50E75A3
:10011E000F0AF510751108EF640C4E7030E511647E
:10012E000A45106028E50F640A450E6020E50D644F
:10013E000A450C6018050DE50D7002050C050FE55E
:10014E000F7002050E0511E51170020510EF640D1A
:10015E004E600302022DF50C750D0AF50E750F0A91
:10016E00F510751101FF7EF212069FE51145107014
:10017E000302022DE50F450E700302022DE50D451B
:06018E000C700302022DBB
:1001940075130AD3E513940074809480400FE50D21
:1001A400150D7002150C12069B151380E675130AC3
:1001B400D3E513940074809480400F050DE50D7011
:1001C40002050C12069B151380E675130AD3E5137A
:1001D400940074809480400FE50F150F7002150E83
:1001E40012069B151380E675130AD3E51394007465
:1001F400809480400F050FE50F7002050E12069BD8
:10020400151380E6751305D3E51394007480948068
:100214004017E50F150F7002150E12069B0511E528
:090224001170020510151380DEB3
:10022D00E50B640E60030202D4F50C750D0AF50E94
:10023D00750F05F51075110AFF7EF212069FE51177
:10024D00451070030202D4E50F450E607AE50D45A9
:03025D000C6074BE
:10026000751305D3E513940074809480400F050F37
:10027000E50F7002050E12069B151380E675130A32
:10028000D3E513940074809480400FE5111511702C
:1002900002151012069B151380E675130AD3E51399
:1002A000940074809480400F0511E51170020510D0
:1002B00012069B151380E675130AD3E51394007498
:1002C000809480400FE50D150D7002150C12069BF1
:0402D000151380E69C
:1002D400E50B640F600302037BF50C750D02F50E4C
:1002E400750F02F51075110AFF7EF212069FE511D3
:1002F4004510700302037BE50F450E607AE50D455A
:030304000C607416
:10030700751308D3E513940074809480400F050F8C
:10031700E50F7002050E12069B151380E675130A8A
:10032700D3E513940074809480400FE51115117084
:1003370002151012069B151380E675130AD3E513F1
:10034700940074809480400F0511E5117002051028
:1003570012069B151380E675130AD3E513940074F0
:10036700809480400FE50F150F7002150E12069B43
:04037700151380E6F4
:10037B00E50B64106003020023E5114510700302C6
:10038B000023E50F450E7003020023E50D450C70AD
:10039B0003020023E50D150D7002150CE50F150F6B
:0F03AB007002150EE511151170021510020023D6
:03000B0002060CDE
:10060C00C0E0C0D075D000C006C007758CFE758ADE
:10061C00EC050AC3E50A940A748094804003750AB9
:10062C0000AF0A7E00C3EF950DEE950C4004C2801E
:10063C008002D280C3EF950FEE950E4004C28180EC
:10064C0002D281C3EF9511EE95104004C282800254
:0B065C00D282D007D006D0D0D0E03210
:10058C0002000EE493A3F8E493A34003F68001F277
:10059C0008DFF48029E493A3F85407240CC8C33370
:1005AC00C4540F4420C8834004F456800146F6DF3F
:1005BC00E4800B010204081020408090068BE47E3E
:1005CC00019360BCA3FF543F30E509541FFEE49334
:1005DC00A360010ECF54C025E060A840B8E493A3FB
:1005EC00FAE493A3F8E493A3C8C582C8CAC583CA26
:1005FC00F0A3C8C582C8CAC583CADFE9DEE780BEDE
:01069A00005F
:00000001FF
